:020000040800F2
:100000000000042095430008BB070008BD07000856
:10001000BF070008C1070008C30700080000000070
:10002000000000000000000000000000C5070008FC
:10003000C707000800000000C9070008CB07000838
:10004000E5430008E5430008E5430008E5430008F0
:10005000E5430008E5430008E5430008E5430008E0
:10006000E5430008E5430008E5430008E5430008D0
:10007000E5430008E5430008E5430008E5430008C0
:10008000E5430008E5430008E5430008E5430008B0
:10009000E5430008E5430008E5430008E5430008A0
:1000A000E5430008E5430008E5430008E543000890
:1000B000E5430008E5430008E5430008E543000880
:1000C000E5430008E5430008E5430008E543000870
:1000D000E5430008E5430008E5430008E543000860
:1000E000E5430008E5430008E5430008E543000850
:1000F000E5430008E5430008E5430008E543000840
:10010000E5430008E5430008E5430008E54300082F
:10011000E5430008E5430008E5430008E54300081F
:10012000E5430008E5430008E5430008E54300080F
:10013000E54300080000000000000000000000008F
:10014000000000000000000000000000D5070008CB
:10015000E5430008E5430008E5430008E5430008DF
:10016000E5430008E5430008E5430008E5430008CF
:10017000E5430008E543000800000000000000001F
:10018000E5430008E5430008E5430008E5430008AF
:10019000E5430008E543000800000000E5430008CF
:1001A000000000000000000000000000E54300081F
:1001B000E5430008E54300080000000000000000DF
:1001C000000000000000000000000000000000002F
:1001D000000000000000000000000000E5430008EF
:1001E00010B5054C237833B9044B13B10448AFF371
:1001F00000800123237010BDD40100200000000006
:100200003853000808B5034B1BB103490348AFF34B
:10021000008008BD00000000D8010020385300080D
:1002200001F0FF01102A2BDB10F0070F08D010F8A7
:10023000013B013A8B422DD010F0070F42B3F6D1AB
:10024000F0B441EA012141EA014122F007047FF0C4
:1002500000070023F0E80256083C85EA010586EA1B
:10026000010685FA47F5A3FA87F586FA47F6A5FA57
:1002700087F68EB9EED1F0BC01F0FF0102F0070263
:1002800032B110F8013B013A83EA010313B1F8D10E
:100290000020704701387047002D06BF35460338EF
:1002A000073815F0010F07D1013015F4807F02BF28
:1002B000013015F4C03F0130F0BC0138704700BF79
:1002C00053B94AB9002908BF00281CBF4FF0FF31BD
:1002D0004FF0FF3000F072B9ADF1080C6DE904CEBB
:1002E00000F006F8DDF804E0DDE9022304B0704711
:1002F0002DE9F047089E04468846002B4BD18A42E0
:10030000154667D9B2FA82F24AB1C2F1200701FA62
:1003100002F320FA07F7954047EA030894404FEAB2
:10032000154E230CB8FBFEF71FFA85FC0EFB178851
:1003300043EA084307FB0CF1994209D9EB1807F18E
:10034000FF3080F01B81994240F21881023F2B441C
:100350005B1AA4B2B3FBFEF00EFB103344EA034475
:1003600000FB0CFCA44509D92C1900F1FF3380F0E7
:100370000781A44540F2048102382C4440EA07403A
:10038000A4EB0C0400271EB1D4400023C6E90043AF
:100390003946BDE8F0878B4209D9002E00F0EB808A
:1003A0000027C6E9000138463946BDE8F087B3FAB0
:1003B00083F7002F47D18B4202D3824200F2FA80AA
:1003C000841A61EB030301209846002EE0D0C6E9B1
:1003D0000048DDE702B9FFDEB2FA82F2002A40F0FF
:1003E0008F80491B4FEA154E1FFA85F80127B1FB94
:1003F000FEFC230C0EFB1C1143EA014308FB0CF12D
:10040000994207D9EB180CF1FF3002D2994200F261
:10041000CD808446591AA3B2B1FBFEF00EFB101436
:1004200043EA044408FB00F8A04507D92C1900F161
:10043000FF3302D2A04500F2B6801846A4EB0804B0
:1004400040EA0C409FE7C7F1200CBB4022FA0CFEAB
:100450004EEA030E01FA07F420FA0CF521FA0CF328
:100460004FEA1E482543B3FBF8F92C0C08FB19335F
:100470001FFA8EFA44EA034309FB0AF49C4202FA8B
:1004800007F200FA07F10BD91EEB030309F1FF3065
:1004900080F087809C4240F28480A9F10209734475
:1004A0001B1BADB2B3FBF8F008FB103345EA034465
:1004B00000FB0AFAA24508D91EEB040400F1FF3341
:1004C0006BD2A24569D90238744440EA0940A0FBC6
:1004D0000289A4EB0A044C45C2464B4654D351D082
:1004E000002E69D0B1EB0A0564EB030404FA0CFC9E
:1004F000FD40FC404CEA0505C6E90054002747E7EB
:10050000C2F1200320FA03F7954001FA02F021FA24
:1005100003F34FEA154E3843010CB3FBFEF71FFA05
:1005200085F80EFB173341EA034107FB08F38B42C2
:1005300004FA02F407D9691807F1FF3C2FD28B4265
:100540002DD9023F2944CB1A81B2B3FBFEF00EFB3A
:10055000103341EA034100FB08F38B4207D96918C5
:1005600000F1FF3C17D28B4215D902382944C91A31
:1005700040EA07473BE73746304609E70746E7E6E4
:100580001846FBE64145ABD2B8EB020A69EB0E0216
:1005900001381346A4E76046E9E7184695E7674641
:1005A000D1E781467CE702382C4447E7ACF1020CE6
:1005B0002B442FE7384608E73746E9E6704700BF87
:1005C000F0B58DB000240794089409940A940B9414
:1005D000354B1A6B42F004021A631A6B02F00402E4
:1005E0000192019A1A6B42F080021A631A6B02F0B0
:1005F00080020292029A1A6B42F002021A631A6B8C
:1006000002F002020392039A1A6B42F008021A6384
:100610001A6B02F008020492049A1A6B42F040022C
:100620001A631A6B02F040020592059A1A6B42F0A7
:1006300001021A631B6B03F001030693069B1B4F19
:1006400022464FF48141384602F036FD184D2246CD
:100650004021284602F030FD4FF400530793154B1C
:100660000893099407A9144802F042FC4FF481430F
:1006700007930126089609940A9407A9384602F0C0
:1006800037FC40230793089609940A9407A9284643
:1006900002F02EFC802307930894099407A92846AA
:1006A00002F026FC0DB0F0BD00380240000402400C
:1006B00000180240000011100008024008B5094867
:1006C000094B03604FF4E133436000238360C36050
:1006D00003610C2242618361C3610362436200F0E3
:1006E0009EFB08BD000200200048004070B5B4B079
:1006F0003022002128A803F0ABFE00242394249488
:100700002594269427948022214603A803F0A0FE76
:1007100002F0D8FC1F4B1A6C42F080521A641B6C1A
:1007200003F080530193019B1B4A136823F4404359
:1007300043F480431360136803F440430293029B25
:10074000012328934FF4A023299302252E954FF4DB
:1007500080032F930F2630969023319332950523F3
:10076000339328A801F03AFE2396249525944FF45C
:10077000A05326934FF480532793032123A802F01C
:100780006BF8064B03931494209403A802F03CF9F1
:1007900034B070BD003802400070004000012000FD
:1007A00008B502F0BDFCFFF7A1FFFFF709FFFFF757
:1007B00085FF02F00FFDFEE770477047FEE7FEE79A
:1007C000FEE7FEE770477047704708B502F0B4FCDB
:1007D00008BD000008B5024800F042FC08BD00BF9B
:1007E0001005002082B00A4B1A6C42F080521A6445
:1007F0001A6C02F080520092009A5A6C42F48042C5
:100800005A645B6C03F480430193019B02B0704710
:100810000038024000B589B0002303930493059388
:10082000069307930268144B9A4202D009B05DF810
:1008300004FB03F5F8331A6C42F480221A641A6C34
:1008400002F480220192019A1A6B42F008021A63A4
:100850001B6B03F008030293029B4FF44073039356
:1008600002230493032306930723079303A9034852
:1008700002F03EFBDAE700BF00480040000C0240F7
:100880000649CB6823F4E0631B041B0C000200F450
:10089000E0600343024A1A43CA60704700ED00E07B
:1008A0000000FA0530B4154BDB68C3F30223C3F133
:1008B0000704042C28BF04241D1D062D14D9033B56
:1008C0004FF0FF3505FA04F421EA0401994005FAD6
:1008D00003F322EA03031943002807DB0901C9B225
:1008E000074B195430BC70470023E9E700F00F00B4
:1008F0000901C9B2034B1954F4E700BF00ED00E051
:1009000000E400E014ED00E000F01F0240090123C4
:100910009340024A42F82030704700BF00E100E0F7
:100920000138B0F1807F0AD2064B5860064AF021A8
:1009300082F823100020986007221A607047012077
:10094000704700BF10E000E000ED00E02DE9F0414D
:1009500005460F4616469846069C2B68DB6937EA23
:1009600003030CBF01230023B3421DD1B4F1FF3FA9
:10097000F3D02CB102F0ECFBA0EB0800A042ECD3CA
:100980002A68136823F4D07313602A68936823F0ED
:1009900001039360202385F8693085F86A300023CD
:1009A00085F86830032000E00020BDE8F0810000F9
:1009B00010B5044683680269134342691343C26950
:1009C0001343016808689D4A024013430B60226884
:1009D000536823F44053E1680B435360A369226AD0
:1009E0001A4321688B6823F4306313438B602368B8
:1009F000934A934219D0934A93422AD0924A9342FF
:100A000040D0924A934255D0914A93426AD0914A3B
:100A1000934200F08280904A934200F099808F4A7E
:100A2000934200F0B0801022C9E002F59432D2F86F
:100A3000902002F00302032A03D8DFE802F0BF0689
:100A400004081022BBE00222B9E00422B7E0082229
:100A5000B5E002F5FA32D2F8902002F00C020C2A2E
:100A600008D8DFE802F0BA0707070B0707070907EE
:100A700007070D001022A2E00222A0E004229EE05F
:100A800008229CE002F5F832D2F8902002F0300201
:100A9000102A0DD005D9202A08D0302A04D10822E6
:100AA0008DE00AB900228AE0102288E0022286E066
:100AB000042284E002F5F632D2F8902002F0C0025F
:100AC000402A0DD005D9802A08D0C02A04D1082296
:100AD00075E00AB9002272E0102270E002226EE096
:100AE00004226CE002F5F432D2F8902002F4407255
:100AF000B2F5807F0FD007D9B2F5007F09D0B2F5EB
:100B0000407F04D108225AE00AB9002257E010229F
:100B100055E0022253E0042251E002F59232D2F86D
:100B2000902002F44062B2F5806F0FD007D9B2F581
:100B3000006F09D0B2F5406F04D108223FE00AB936
:100B400001223CE010223AE0022238E0042236E0A2
:100B500002F5E032D2F8902002F44052B2F5805F04
:100B60000FD007D9B2F5005F09D0B2F5405F04D1CC
:100B7000082224E00AB9002221E010221FE002220C
:100B80001DE004221BE002F5DE32D2F8902002F4D0
:100B90004042B2F5804F0FD007D9B2F5004F09D0CF
:100BA000B2F5404F04D1082209E00AB9002206E05C
:100BB000102204E0022202E0042200E00122E169A6
:100BC000B1F5004F0BD0082A00F29B80DFE802F05D
:100BD000616D7999839999998F000022EFE7082A2E
:100BE00054D8DFE802F0051722533F5353534A000D
:100BF00001F0EAFE6268530803EB4003B3FBF2F333
:100C00009BB2002023F00F02C3F342031343226878
:100C1000D36010BD01F0E8FE6268530803EB4003A7
:100C2000B3FBF2F39BB20020ECE762680C4B03EBE2
:100C30005203B3FBF2F39BB20020E3E7F369FFEF4B
:100C4000001001400044004000480040004C0040BB
:100C5000005000400014014000780040007C00403B
:100C60000048E80101F0A4FD6268530803EB40036B
:100C7000B3FBF2F39BB20020C4E76268530803F5AC
:100C80008033B3FBF2F39BB20020BBE701200023CB
:100C9000B8E701F099FE636800EB5300B0FBF3F096
:100CA000236880B2D8600020B3E701F09DFE63683E
:100CB00000EB5300B0FBF3F0236880B2D860002053
:100CC000A7E76168104A02EB5102B2FBF1F292B25F
:100CD000DA6000209DE701F06BFD636800EB5300D4
:100CE000B0FBF3F0236880B2D860002091E7616820
:100CF0004A0802F50042B2FBF1F292B2DA6000203B
:100D000087E7012085E700BF0024F400436A13F061
:100D1000010F06D00268536823F40033816A0B4345
:100D20005360436A13F0020F06D00268536823F43D
:100D30008033C16A0B435360436A13F0040F06D03B
:100D40000268536823F48023016B0B435360436AAA
:100D500013F0080F06D00268536823F40043416B78
:100D60000B435360436A13F0100F06D00268936878
:100D700023F48053816B0B439360436A13F0200F7D
:100D800006D00268936823F40053C16B0B43936051
:100D9000436A13F0400F0AD00268536823F48013AB
:100DA000016C0B435360036CB3F5801F0BD0436A97
:100DB00013F0800F06D00268536823F40023816C7F
:100DC0000B43536070470268536823F4C003416CBF
:100DD0000B435360EBE710B582B004460023C366B3
:100DE00002F0B6F92268126812F0080F09D1202328
:100DF00084F8693084F86A30002084F8680002B012
:100E000010BD6FF07E430093034600224FF40011A3
:100E10002046FFF79BFD0028E9D00320EFE778B3D9
:100E200010B5044690F869300BB3242384F8693078
:100E30002268136823F0010313602046FFF7B8FD12
:100E4000012813D0636ABBB92268536823F4904326
:100E500053602268936823F02A0393602268136822
:100E600043F0010313602046FFF7B5FF10BD80F883
:100E70006830FFF7CFFCD8E72046FFF747FFE3E7EE
:100E8000012070472DE9F04782B007460D46D0F8A3
:100E90000080C146CA00521A930003441A6D596D6E
:100EA000521A5E6C964200D3164606F1030A4FEAC8
:100EB0009A0A15E006F1030A4FEA9A0AEB005B1B57
:100EC0009C003C44A16C3B7C0093B3B2EAB2404628
:100ED00001F074F8A36C3344A364636D3344636519
:100EE00009EB451303F510639B699BB2534512D977
:100EF000EB005B1B9A003A44516D136D99420AD284
:100F00004BB15B1AC5EBC5018A003A44566C9E4250
:100F1000D0D31E46CEE73EB90123AB40D8F83458B3
:100F200025EA0305C8F83458002002B0BDE8F08770
:100F300000287DD0F0B58BB0044690F8BD33E3B106
:100F4000032384F8BD33206800F0F6FD254655F8EC
:100F5000107B6E460FCD0FC60FCD0FC695E8030070
:100F600086E80300231D0ECB384600F0A1FD0021CA
:100F7000206800F0E7FD00231AE080F8BC3302F09F
:100F800045F9DDE7D900C81A82002244012082F821
:100F90003D0082F83C30A2F84230002082F83F0049
:100FA00050649064CA1A9100214408650133DBB291
:100FB0000E2BE7D9002315E0D800C11A8A0022447D
:100FC000002182F8FD1182F8FC3182F8FF11C2F88D
:100FD0000412C2F80812C21A90002044C0F810127D
:100FE0000133DBB20E2BE7D9254655F8107B6E4650
:100FF0000FCD0FC60FCD0FC695E8030086E803009E
:10100000231D0ECB384600F0E3FD002384F8383072
:10101000012384F8BD33636A012B05D0206801F0F9
:101020005CF900200BB0F0BD204600F00FFDF5E7A5
:101030000120704790F8BC33012B0ED010B5044648
:10104000012380F8BC33006801F03BF9206800F010
:101050006DFD002084F8BC0310BD02207047000025
:101060002DE9F04F83B004460568D5F84090284636
:1010700001F070F910B103B0BDE8F08FA846064644
:10108000206801F036F90028F5D0206801F031F928
:1010900010F0020F04D02268536903F00203536179
:1010A000206801F026F910F4002F40F092803746B6
:1010B000206801F01EF910F4802F40F0358120687F
:1010C00001F017F90028C0F2A381206801F011F99E
:1010D00010F4006F0AD0D5F8083813F0010F40F073
:1010E000B1812268536903F400635361206801F001
:1010F00000F910F0006F15D02268536903F0006307
:10110000536194F8F033002B40F0A081012184F862
:10111000F01323685B6DC3F38303C4F8F4332046F4
:1011200002F0E6F9206801F0E4F810F4805F40F086
:101130009181206801F0DDF810F4005F40F0E28159
:10114000206801F0D6F810F0100F14D022689369CF
:1011500023F0100393612E6A06F00F08C6F3434391
:10116000022B00F06282062B00F0808222689369D5
:1011700043F010039361206801F0BBF810F0080FF2
:1011800040F08882206801F0B4F810F4801F40F02D
:101190008A82206801F0ADF810F4001F40F08D82C3
:1011A000206801F0A6F810F0804F40F0908220688F
:1011B00001F09FF810F0040F3FF45DAF23685D6805
:1011C00015F0040F40F08C82226853682B43536063
:1011D00051E7206801F091F8824637464FE0D8F891
:1011E000082B12F4004F67D04FF400429A6063E07E
:1011F000F900C91B8A002244D2F804121869C0F30E
:101200001200091AC2F81412D2F80402D2F8081215
:101210000144C2F8081252E00199204602F040F859
:1012200003E00199204602F03BF82369012B52D0DC
:101230001BF0080F10D0C34B99455DD0C24B9945A8
:1012400002D92369012B63D0204602F021F808EB74
:1012500047130822C3F8082B1BF0100F04D008EB2B
:1012600047131022C3F8082B1BF0200F04D008EB03
:1012700047132022C3F8082B01374FEA5A0ABAF164
:10128000000F3FF415AF1AF0010FF5D0FBB2019338
:101290001946206801F041F8834610F0010FC7D0CD
:1012A00008EB471303F5306301229A60A64A914583
:1012B00002D92269012A92D02269012A98D0A14A32
:1012C0009145AED1D8F8082B12F4004FA4D04FF4BA
:1012D00000429A60A9E7002FAAD1C7EBC70293008A
:1012E0002344D3F81032002BA2D104F570720121EF
:1012F000206801F04FF89BE7D8F8083B13F4004F43
:101300009CD008EB47134FF40042C3F8082B95E735
:10131000D8F8083B13F4004F96D008EB47134FF46E
:101320000042C3F8082B8FE7206800F0EEFF8146EB
:1013300037462EE0FA00D21B93002344596C9A6C76
:101340000A449A6448E01AF0080F04D008EB4713E7
:101350000822C3F808291AF0100F04D008EB47132D
:101360001022C3F808291AF0400F04D008EB4713E5
:101370004022C3F808291AF0020F04D008EB4713E3
:101380000222C3F808291AF0800F3CD101374FEA36
:101390005909B9F1000F3FF492AE19F0010FF5D0E1
:1013A0005FFA87FB5946206800F0C0FF824610F0C4
:1013B000010FC8D007F00F03012101FA03F2D8F89A
:1013C000343823EA0203C8F8343808EB4713C3F86B
:1013D000081923698B42ADD05946204601F06CFFB5
:1013E0002369012BAFD1002FADD1C7EBC70293000A
:1013F00023441B6D002BA6D104F5707201212068D7
:1014000000F0C8FF9FE739462046FFF73BFDBDE7E8
:10141000D5F8043823F00103C5F8043894F8F03304
:10142000012B08D0204601F081FF2268536903F0A8
:101430000043536149E6002184F8F013204602F08E
:1014400057F8F2E7204601F059FF4AE6204601F03E
:1014500055FF67E605F50069D9F8043023F001036C
:10146000C9F804301021206800F084FB14E008EB78
:1014700046134FF67F31C3F80819D3F8002922F438
:101480000012C3F80029C3F8081BD3F8002B22F47C
:101490000012C3F8002B01366368B342E7D8D9F8CD
:1014A0001C3043F00113C9F81C30236BEBB1D9F8A1
:1014B000843043F00B03C9F88430D9F8443043F04A
:1014C0000B03C9F84430D5F8003823F4FE63C5F89F
:1014D000003804F57072217C206800F05BFF226800
:1014E000536903F48053536123E6D9F8143043F071
:1014F0002B03C9F81430D9F8103043F00B03C9F8A6
:101500001030E0E7206800F029FF2268D36823F458
:101510007053D360206800F02DFCB8B90023E3605D
:101520004FF4007363612268D36843F41053D360AF
:10153000204601F0D2FE2268536903F40053536140
:10154000FEE500BF0A31544F0A30544F0323E360D5
:101550004023636101F032FA634B0344634A9342D0
:1015600005D82268D36843F47053D360E0E7604B3A
:101570000344604A934205D82268D36843F4605319
:10158000D360D5E75C4B03445C4A934205D822689C
:10159000D36843F45053D360CAE7594B0344594AC4
:1015A000934205D82268D36843F44053D360BFE721
:1015B000554B0344554A934205D82268D36843F4F7
:1015C0003053D360B4E7524B0344524A934205D898
:1015D0002268D36843F42053D360A9E74E4B0344F9
:1015E0004E4A934205D82268D36843F41053D3601F
:1015F0009EE74B4B03444B4A934205D82268D3687D
:1016000043F40053D36093E7474B0344474A934264
:1016100005D82268D36843F4E053D36088E7226892
:10162000D36843F4C053D36082E747F6F0731E4299
:101630003FF49CAD4FEAC80AAAEB08034FEA8309BE
:10164000A1443609C6F30A02D9F80812284600F068
:10165000B9FDC6F30A06D9F808323344C9F808328E
:10166000D9F814321E44C9F814627FE5082204F543
:101670007071284600F0A6FDC6F30A164FEAC803AB
:10168000A3EB08018A002244D2F814321E44C2F8A7
:1016900014626BE5204601F01AFE2268536903F0DC
:1016A000080353616EE5F9B2204601F04BFE226853
:1016B000536903F4801353616BE5F9B2204601F0DE
:1016C0003BFE2268536903F40013536168E520462A
:1016D00001F03EFE2268536903F08043536166E5E2
:1016E000204601F03BFE6FE5405327FFFF340C001E
:1016F000401E1BFF3F420F0000DC0BFF7F4F12001C
:10170000808CF9FE1FD6130060B6E5FE5FE316007D
:1017100000D3CEFE3F771B00C05BB3FEBF9121001C
:1017200000CA91FE1F753800E05459FEDF9C41004D
:1017300090F8BC33012B0DD010B50446012380F87E
:10174000BC3380F83810006800F0ABFD002084F84E
:10175000BC0310BD02207047F8B511F0800F28D1EE
:1017600001F00F06F500AF1BBC00274604F5FC7422
:10177000044404343E460644002586F8FD5101F039
:101780000F012170A260E370627802B1E180022B48
:101790001ED090F8BC33012B1DD00546012380F8E4
:1017A000BC332146006800F0F9FA002085F8BC033C
:1017B000F8BD01F00F06F500AF1BBC00274638341A
:1017C000044404343E460644012586F83D50D6E7DD
:1017D00000232371DDE70220EAE738B511F0800F1E
:1017E00021D101F00F05EA00541BA3001C4603F5AC
:1017F000FC730344043325460544002285F8FD218B
:1018000001F00F01197090F8BC23012A1AD0044688
:10181000012280F8BC231946006800F007FB002075
:1018200084F8BC0338BD01F00F04E200151BAB00C7
:101830001D463833034404332C460444012284F803
:101840003D20DDE70220EDE770B501F00F05EE0069
:10185000711B8C0004F5FC740444211D761BB4003C
:101860000444C4F80822C4F810320023C4F8143227
:1018700084F8FD3184F8FC510369012B06D065B171
:10188000DAB2006800F0AEFB002070BDC5EBC50603
:10189000B4000444C4F80C22F1E7DAB2006800F0A6
:1018A0000DFBF1E701F00F01C1EBC1018B00184402
:1018B000B0F81402704770B501F00F05EE00711B0F
:1018C0008C0038340444211D761BB4000444A26407
:1018D000236500236365012384F83D3084F83C5080
:1018E0000369012B06D05DB1DAB2006800F07AFB23
:1018F000002070BDC5EBC506B4000444E264F2E705
:10190000DAB2006800F0DAFAF2E738B501F00F0554
:1019100043689D4236D811F0800F20D1CA00541A76
:10192000A3001C4603F5FC7303440433224602441F
:10193000002182F8FD1101229A701D7090F8BC23DD
:10194000012A21D00446012280F8BC2319460068F0
:1019500000F04CFC7DB1002084F8BC0313E0EA00E9
:10196000511B8B00194638330344043301440122D0
:1019700081F83D20DFE704F57072217C206800F0DB
:1019800009FDE8E7012038BD0220FCE710B501F0B1
:101990000F0443689C422CD811F0800F1DD1E30046
:1019A0001A1B91000A4601F5FC71014404310244FE
:1019B000002382F8FD3100238B700C7090F8BC334B
:1019C000012B18D00446012380F8BC33006800F0D6
:1019D0003AFC002084F8BC030CE0E3001A1B9100E1
:1019E0000A463831014404310244012382F83D3073
:1019F000E1E7012010BD0220FCE730B40468606A12
:101A000029B10D46A36A00EB134000230CE040EA25
:101A10000240A06212E003F1400104EB8101496839
:101A200000EB11400133DBB2691E8B42F3D340EA75
:101A3000024005F13F0104EB81014860002030BC09
:101A4000704703685962002070470000024603682F
:101A50000121C0F8F813002082F8F0039A6942F0DF
:101A600000629A61596D024A0A435A65704700BF85
:101A700003000010002301330C4A934211D802697D
:101A8000002AF8DA036943F00103036100230133FC
:101A9000064A934207D8026912F0010FF7D10020DD
:101AA0007047032070470320704700BF400D0300BC
:101AB00084B010B5044603A880E80E00089B012BF3
:101AC0001ED1A36B23F48033A363E268164B13404B
:101AD000E360E36823F44013E3600F9B012B0AD01B
:101AE0002046FFF7C7FF069B012B14D00020BDE85E
:101AF000104004B07047E36843F48013E360EFE7FD
:101B0000E36843F04003E3602046FFF7B3FF4FF480
:101B10008033A363E7E7A36843F00603A360A368E9
:101B200043F02003A360E1E7BFFFBDFF836843F0FC
:101B30000103836000207047836823F00103836002
:101B40000020704708B5C36823F0C043C360012973
:101B500009D069B9C36843F08043C360322001F003
:101B6000FDFA002008BDC36843F00053C360F5E7E9
:101B70000120F7E7890141F02001016100230133D1
:101B8000054A934205D8026912F0200FF7D10020D0
:101B900070470320704700BF400D0300102303610E
:101BA00000230133054A934205D8026912F0100F51
:101BB000F7D1002070470320704700BF400D03009D
:101BC000D0F800381943C0F8001800207047000012
:101BD00084B0F8B5044607A880E80E002546002327
:101BE00006E003F1400204EB820200215160013360
:101BF0000E2BF6D9A36B43F40013A363119F5FB9B7
:101C0000A36B23F40013A363236843F04003236012
:101C1000236843F0800323600023C4F8003E04F5EA
:101C20000066D4F80038C4F800380C9B012B08D0AB
:101C3000032B17D1099B83B900212046FFF7C0FF72
:101C400014E0099B23B900212046FFF7B9FF0DE0FE
:101C500001212046FFF7B4FF08E001212046FFF7ED
:101C6000AFFF03E003212046FFF7AAFF1021204623
:101C7000FFF780FF2046FFF791FF00233361736178
:101C8000F3610AE0C3B94FF00060C2F80009002216
:101C90000A614FF67F328A6001330799994210D961
:101CA00005EB431202F51061D2F800090028E9DBC8
:101CB0000020C2F80009EAE74FF09040C2F800099E
:101CC000E5E700230AE0CBB14FF0904CC2F800CB1F
:101CD000002202614FF67F3282600133994212D9AD
:101CE00005EB431202F53060D2F800CBBCF1000FD7
:101CF000E9DB4FF0000CC2F800CBE9E74FF0006CD5
:101D0000C2F800CBE4E7336923F4807333610A9BA4
:101D1000012B1AD00022A2616FF0804262611BB9D0
:101D2000A36943F01003A361A2690E4B1343A3619F
:101D30000D9B1BB1A36943F00803A361012F0BD0D6
:101D40000020BDE8F84004B07047074A3263316BA9
:101D5000064A0A433263DDE7A269054B1343A361D8
:101D6000EEE700BF00383C80000180000300010066
:101D700004000040D0F8083813F0060309D0062B01
:101D800018BF022B07D0042B01D00020704702207F
:101D900070470020704703207047000070B40B7834
:101DA0004A78012A20D0D0F81C2803F00F0601241D
:101DB000B44042EA0442C0F81C2800EB4310D0F8BB
:101DC000003B13F4004F0CD1D0F8002B8B68C3F309
:101DD0000A03C97843EA81431343134A1A43C0F8FC
:101DE000002B002070BC7047D0F81C4803F00F0691
:101DF000B24092B22243C0F81C2800EB4310D0F846
:101E0000002912F4004FECD1D0F800498A68C2F3DF
:101E10000A02C97842EA814242EA83532343024AD2
:101E20001A43C0F80029DCE70080001070B40B787A
:101E30004A78012A1FD0D0F83C5803F00F0601243D
:101E400004FA06F625EA0645C0F83C58D0F81C58B6
:101E5000097801F00F018C4025EA0444C0F81C48C1
:101E600000EB4310D0F8002B124B1340C0F8003B9E
:101E7000002070BC7047D0F83C6803F00F0402FAF1
:101E800004F4A4B226EA0404C0F83C48D0F81C4884
:101E9000097801F00F018A4092B224EA0202C0F8E8
:101EA0001C2800EB4310D0F80039034A1A40C0F850
:101EB0000029DDE70078F3EF007833EC70B40B789D
:101EC0004C78012C24D000EB431000F530631D69E1
:101ED000384C2C401C611D69374C2C401C614C69EE
:101EE0000CB18C684C611C6944F400241C611C69B1
:101EF0008D68C5F312052C431C61012A57D0D0F818
:101F0000003B43F00443C0F8003B002070BC704726
:101F10004C6954BB00EB4314D4F81069264D35408E
:101F2000C4F81059D4F8105945F40025C4F81059D4
:101F3000D4F810691F4D3540C4F81059012A30D02B
:101F40004A694AB1D0F83428097801F00F04012118
:101F5000A1400A43C0F8342800EB4310D0F8002910
:101F600042F00442C0F80029CFE700EB431404F527
:101F7000106426690F4D3540256126690E4D3540A8
:101F800025614E698D68AE4200D94D61256945F4E1
:101F90000025256125694E69C6F312063543256182
:101FA000CCE700EB43120969C2F81419D4E7CA68F8
:101FB0005A61A4E70000F8FFFFFF07E070B49DF846
:101FC0000C4064B903339D0807E000EB023303F5CE
:101FD000805351F8046B1E600134AC42F5D30020ED
:101FE00070BC7047F0B583B00B784C78012C29D0C9
:101FF00000EB431303F5306426696F4D35402561CE
:1020000026696E4D354025614D69002D40F0A88050
:1020100025698E68C6F3120635432561256945F4A6
:1020200000252561012A00F0B080CA78012A00F05D
:10203000AF80D3F8002B42F00442C3F8002B0020FD
:1020400003B0F0BD4C6934BB00EB4314D4F8106905
:102050005A4D3540C4F81059D4F8105945F40025AC
:10206000C4F81059D4F81069534D3540C4F81059CC
:10207000012A42D0CC78012C44D04C69002C41D0AC
:10208000D0F834480D7805F00F060125B5402C43F3
:10209000C0F8344836E000EB4314D4F81069464DDC
:1020A0003540C4F81059D4F81069444D3540C4F88F
:1020B0001059D4F810694D698F683D44013DB5FB56
:1020C000F7F53F4F07EAC5453543C4F81059D4F832
:1020D00010594E69C6F312063543C4F8105904F579
:1020E0001064CD78012DC3D1256925F0C045256147
:1020F000256945F000552561BAE700EB43140D69E9
:10210000C4F81459CC78012C13D000EB4313D3F846
:10211000004944F00444C3F80049CB78012B8ED128
:1021200014460B46C9681A789B8A0094FFF746FF4D
:1021300085E7D0F8084814F4807F08D100EB4315F8
:10214000D5F8004944F00054C5F80049DDE700EB3C
:102150004315D5F8004944F08054C5F80049D4E748
:102160008E683544013DB5FBF6F52669144F07EA44
:10217000C5473E43266127698E68ADB206FB05F56B
:10218000C5F312053D4325614CE7CA6862614CE71F
:10219000D0F8082812F4807F06D1D3F8002B42F043
:1021A0000052C3F8002B44E7D3F8002B42F08052D2
:1021B000C3F8002B3DE700BF0000F8FFFFFF07E07A
:1021C0000000F81F03329208002393420CD210B48F
:1021D00000F58054246841F8044B01339342F7D34F
:1021E00008465DF8044B7047084670470B784A78FC
:1021F000012A14D000EB4310D0F8002B002A06DB94
:102200002BB1D0F8003B23F08043C0F8003BD0F85E
:10221000003B43F40013C0F8003B0020704700EB84
:102220004310D0F80029002A06DB2BB1D0F8003982
:1022300023F08043C0F80039D0F8003943F400138C
:10224000C0F80039E9E70B784A78012A0ED000EB94
:102250004310D0F8003B23F40013C0F8003BCB78C8
:10226000023BDBB2012B15D90020704700EB431075
:10227000D0F8003923F40013C0F80039CB78023BC2
:10228000DBB2012BF0D8D0F8003943F08053C0F80E
:102290000039E9E7D0F8003B43F08053C0F8003B39
:1022A000E2E7D0F8003823F4FE63C0F80038D0F835
:1022B0000038090101F4FE610B43C0F8003800202A
:1022C000704708B5D0F8043823F00203C0F804388A
:1022D000032000F043FF002008BD08B5D0F8043803
:1022E00043F00203C0F80438032000F037FF002059
:1022F00008BD4269806910407047D0F8183800F571
:102300000060C0691840000C7047D0F8183800F51C
:102310000060C069184080B2704700EB4111D1F8ED
:10232000082B00F5006040691040704710B4D0F8E9
:102330001048D0F8343801F00F02D340DB01DBB293
:10234000234300EB411000F51060806818405DF8F1
:10235000044B7047406900F001007047D0F8002935
:102360000B4B1340C0F8003900F500639A6802F087
:102370000602042A05D05A6842F480725A6000208E
:102380007047D0F8002942F00302C0F80029F2E7B4
:1023900000F8FFFF10B40024C0F8104BD0F8104B29
:1023A00044F40024C0F8104BD0F8104B44F018044B
:1023B000C0F8104BD0F8104B44F0C044C0F8104B9C
:1023C000012903D000205DF8044B7047C0F8142B9E
:1023D0004FF08023C0F8003BF4E70000002800F035
:1023E000DB8170B582B00446036813F0010F29D079
:1023F000A24B9B6803F00C03042B1AD09F4B9B68E5
:1024000003F00C03082B0FD06368B3F5803F40D076
:10241000002B54D1994B1A6822F480321A601A6842
:1024200022F480221A6039E0944B5B6813F4800F29
:10243000EAD0924B1B6813F4003F03D06368002B73
:1024400000F0AC81236813F0020F75D08B4B9B68B2
:1024500013F00C0F5ED0894B9B6803F00C03082B24
:1024600053D0E368002B00F08A80844A136843F05D
:102470000103136000F06CFE0546804B1B6813F0EF
:10248000020F73D100F064FE401B0228F5D903202F
:1024900087E17A4A136843F48033136063682BB38F
:1024A00000F056FE0546754B1B6813F4003FC9D17A
:1024B00000F04EFE401B6428F5D9032071E1B3F50E
:1024C000A02F09D06D4B1A6822F480321A601A6866
:1024D00022F480221A60E1E7684B1A6842F48022F5
:1024E0001A601A6842F480321A60D7E700F030FEB2
:1024F0000546624B1B6813F4003FA3D000F028FE92
:10250000401B6428F5D903204BE15C4B5B6813F456
:10251000800FA6D1594B1B6813F0020F04D0E3685B
:10252000012B01D001203CE1544A136823F0F80349
:10253000216943EAC1031360236813F0080F46D0F2
:10254000636983B34D4A536F43F00103536700F04F
:10255000FFFD0546494B5B6F13F0020F37D100F0CA
:10256000F7FD401B0228F5D903201AE1434A1368FE
:1025700023F0F803216943EAC1031360DCE73F4A13
:10258000136823F00103136000F0E2FD05463B4BA6
:102590001B6813F0020FCFD000F0DAFD401B0228B9
:1025A000F5D90320FDE0354A536F23F0010353674B
:1025B00000F0CEFD0546314B5B6F13F0020F06D0E5
:1025C00000F0C6FD401B0228F5D90320E9E023688E
:1025D00013F0040F7ED0294B1B6C13F0805F1ED1CB
:1025E000264B1A6C42F080521A641B6C03F0805325
:1025F0000193019B0125224B1B6813F4807F10D0AF
:10260000A368012B21D0002B3CD11C4B1A6F22F068
:1026100001021A671A6F22F004021A671AE00025F5
:10262000E9E7174A136843F48073136000F090FDE4
:102630000646134B1B6813F4807FE1D100F088FD40
:10264000801B6428F5D90320ABE00C4A136F43F0DC
:1026500001031367A3685BB300F07AFD0646074BDE
:102660001B6F13F0020F34D100F072FD801B41F29A
:1026700088339842F3D9032093E000BF003802402A
:1026800000700040052B09D0484B1A6F22F0010260
:102690001A671A6F22F004021A67DBE7434B1A6FBE
:1026A00042F004021A671A6F42F001021A67D1E77A
:1026B00000F04EFD06463D4B1B6F13F0020F08D095
:1026C00000F046FD801B41F288339842F3D9032085
:1026D00067E0F5B9A369002B62D0344A926802F032
:1026E0000C02082A5FD0022B19D0304A136823F05D
:1026F0008073136000F02CFD04462C4B1B6813F014
:10270000007F47D000F024FD001B0228F5D90320EC
:1027100047E0264A136C23F080531364DAE7234A18
:10272000136823F08073136000F012FD05461F4B01
:102730001B6813F0007F06D000F00AFD401B022842
:10274000F5D903202DE0E369226A1343626A43EA64
:102750008213A26A5208013A43EA0243E26A43EA58
:10276000026343F00053114A5360136843F08073CF
:10277000136000F0EDFC04460C4B1B6813F0007F67
:1027800006D100F0E5FC001B0228F5D9032008E083
:10279000002006E0002004E001207047012000E056
:1027A000002002B070BD0120FBE700BF00380240EE
:1027B000264B9B6803F00C03042B44D0082B01D05C
:1027C000234870472DE9F04B204B5A6802F03F0236
:1027D0005B6813F4800F13D01C4B5968C1F3881148
:1027E00000231C48A1FB0001FDF76AFD174B5B6845
:1027F000C3F3014301335B00B0FBF3F0BDE8F08BA2
:10280000124B5B68C3F388131E4600275C0100254A
:10281000E41A65EB0705A90141EA9461A001001BD8
:1028200061EB0501CB0043EA5073C400A01943EBF0
:1028300007018B0243EA9053840220461946002385
:10284000FDF73EFDD2E70348704700BF0038024065
:102850000024F40040787D01002800F0A28070B5CB
:102860000446524B1B6803F00F038B420CD24F4AB5
:10287000136823F00F030B431360136803F00F0377
:102880008B4201D0012070BD236813F0020F17D0D6
:1028900013F0040F04D0464A936843F4E053936066
:1028A000236813F0080F04D0414A936843F460434F
:1028B00093603F4A936823F0F003A068034393605A
:1028C0000D46236813F0010F31D06368012B20D02F
:1028D000022B25D0364A126812F0020F63D0344919
:1028E0008A6822F0030213438B6000F031FC064635
:1028F0002F4B9B6803F00C036268B3EB820F16D07A
:1029000000F026FC801B41F288339842F0D9032066
:10291000B9E7274A126812F4003FE0D10120B2E77C
:10292000234A126812F0007FD9D10120ABE71F4B78
:102930001B6803F00F03AB420CD91C4A136823F049
:102940000F032B431360136803F00F03AB4201D056
:10295000012098E7236813F0040F06D0144A936807
:1029600023F4E053E1680B439360236813F0080FEE
:1029700007D00F4A936823F46043216943EAC103F7
:102980009360FFF715FF0A4B9B68C3F30313094AD3
:10299000D35CD840084B1860002000F09BFB00205F
:1029A00071E70120704701206DE700BF003C024045
:1029B000003802405053000808000020014B1868FE
:1029C000704700BF0800002008B5FFF7F7FF044B71
:1029D0009B68C3F38223034AD35CD84008BD00BF81
:1029E000003802406053000808B5FFF7E7FF044BCA
:1029F0009B68C3F34233034AD35CD84008BD00BF91
:102A00000038024060530008F0B583B00446036804
:102A100013F0010F0CD0A44B9A6822F400029A60C4
:102A20009A68C16A0A439A60C36AC3B1002600E08B
:102A30000026236813F4002F15D09B4AD2F88C305F
:102A400023F44013616B0B43C2F88C30636BB3F516
:102A5000801F06D0002B00F00581002504E0012630
:102A6000E7E70126F6E70025236813F4801F0FD05F
:102A70008D4AD2F88C3023F44003A16B0B43C2F88B
:102A80008C30A36BB3F5800F00F0EE8003B9012505
:102A9000236813F0200F40F0E980236813F0100F33
:102AA0000CD0814BD3F88C2022F08072C3F88C209C
:102AB000D3F88C20216B0A43C3F88C20236813F4CD
:102AC000804F08D0784AD2F8903023F44033E16D3B
:102AD0000B43C2F89030236813F4004F08D0724AB9
:102AE000D2F8903023F44023216E0B43C2F890308B
:102AF000236813F4803F08D06B4AD2F8903023F457
:102B00004013616E0B43C2F89030236813F0400FFE
:102B100008D0654AD2F8903023F00303E16B0B43F1
:102B2000C2F89030236813F0800F08D05E4AD2F8C4
:102B3000903023F00C03216C0B43C2F890302368D3
:102B400013F4807F08D0584AD2F8903023F0300335
:102B5000616C0B43C2F89030236813F4007F08D0F7
:102B6000514AD2F8903023F0C003A16C0B43C2F855
:102B70009030236813F4806F08D04B4AD2F890301D
:102B800023F44073E16C0B43C2F89030236813F4D4
:102B9000006F08D0444AD2F8903023F44063216D8E
:102BA0000B43C2F89030236813F4805F08D03E4A8C
:102BB000D2F8903023F44053616D0B43C2F890304B
:102BC000236813F4005F08D0374AD2F8903023F41A
:102BD0004043A16D0B43C2F89030236813F4001FEB
:102BE0000DD0314AD2F8903023F00063616F0B436F
:102BF000C2F89030636FB3F1006F00F0A1802368DA
:102C000013F4802F08D0284AD2F8903023F0407374
:102C1000E16E0B43C2F89030236813F4000F08D024
:102C2000214AD2F8903023F08053A16F0B43C2F8B1
:102C30009030236813F0806F08D01B4AD2F8903090
:102C400023F00053E16F0B43C2F89030002E79D18E
:102C50002368B3F1007F75D0002D40F0E3800020A1
:102C600003B0F0BD0125FFE601260FE70E4B1A6CFD
:102C700042F080521A641B6C03F080530193019B55
:102C80000A4A136843F48073136000F061FA074640
:102C9000064B1B6813F4807F0AD100F059FAC01B61
:102CA0006428F5D90320DBE70038024000700040BB
:102CB0008D4B1B6F13F4407315D0A26A02F440725F
:102CC0009A4210D0884B1A6F22F44072196F41F467
:102CD00080311967196F21F4803119671A671B6FEA
:102CE00013F0010F12D1A36A03F44072B2F5407FD2
:102CF0001DD07D4A936823F4F81393607A490B6FD3
:102D0000A26AC2F30B0213430B67C6E600F020FA77
:102D10000746754B1B6F13F0020FE4D100F018FA51
:102D2000C01B41F288339842F3D9032098E76E48DC
:102D3000826822F4F8126D4919400A438260DDE787
:102D400001255CE7684A136823F08063136000F094
:102D5000FFF90646644B1B6813F0006F06D000F0C5
:102D6000F7F9801B6428F5D9032079E7236813F06D
:102D7000010F0ED0E36A63B95B4AD2F88430616810
:102D800003F0706343EA8113A16843EA0173C2F858
:102D90008430236813F4002F03D0626BB2F5801FD8
:102DA00006D013F4801F19D0A36BB3F5800F15D193
:102DB0004D4AD2F884106068E3681B0643EA80132A
:102DC00001F0E0410B43C2F88430D2F88C3023F09C
:102DD0001F03E16901390B43C2F88C30236813F0FB
:102DE000007F0AD06268E3681B0643EA8213A26888
:102DF00043EA02733C4AC2F884303B4A136843F00A
:102E00008063136000F0A4F90646374B1B6813F08B
:102E1000006F7FF421AF00F09BF9801B6428F4D988
:102E200003201DE7304A136823F08053136000F03D
:102E30008FF905462C4B1B6813F0005F06D000F09D
:102E400087F9401B6428F5D9032009E7236813F4A8
:102E5000002F01D0626B22B113F4801F18D0A36B36
:102E6000B3B9214AD2F88830216903F4403343EAE8
:102E70008113616943EA0163C2F88830D2F88C306B
:102E800023F4F853216A013943EA0123C2F88C3054
:102E9000236813F4001F03D0636FB3F1006F13D0E6
:102EA000114A136843F08053136000F051F904464F
:102EB0000D4B1B6813F0005F14D100F049F9001BA3
:102EC0006428F5D90320CBE60749D1F8882020698A
:102ED000A3691B0443EA801302F070621343C1F834
:102EE0008830DDE70020BBE600380240FFFCFF0F22
:102EF00000230F2B00F2D680F0B482B039E0072215
:102F000000E00022B2403A430234674E46F82420E3
:102F1000664A1468EA4302EA04064F6817F4803FE1
:102F200001D045EA0406614C2660646802EA0406A2
:102F30004F6817F4003F01D045EA04065B4C666019
:102F4000A46802EA04064F6817F4801F01D045EA1E
:102F50000406564CA660E46822404E6816F4001F32
:102F600001D045EA0402514CE26001330F2B00F21C
:102F7000968001229A400C6804EA0205AA42F4D124
:102F80004C68122C18BF022C10D1DE08083650F8FD
:102F900026C003F00704A7000F24BC402CEA040C51
:102FA0000C69BC4044EA0C0440F8264004685F0009
:102FB0000326BE40F64306EA040C4C6804F0030402
:102FC000BC4044EA0C0404604C6804F1FF3C112C42
:102FD00018BFBCF1010F01D9122C11D1846806EA87
:102FE000040CCC68BC4044EA0C048460446824EAC5
:102FF000020C4C68C4F300129A4042EA0C02426090
:10300000C26816408A68BA403243C2604A6812F009
:10301000805FAAD0264A546C44F480445464526CB5
:1030200002F480420192019A9C08A61C1E4A52F8A2
:10303000267003F0030296000F22B24027EA02072F
:103040001C4A90423FF45DAF02F5806290421AD074
:1030500002F58062904218D002F58062904216D04C
:1030600002F58062904214D002F58062904212D044
:1030700002F58062904210D002F5806290423FF4E7
:103080003EAF08223EE701223CE702223AE7032254
:1030900038E7042236E7052234E7062232E702B099
:1030A000F0BC7047704700BF00380140003C014051
:1030B000003802400000024012B9090481617047E3
:1030C00081617047024A136843F48073136070474C
:1030D0000070004010B504460E4B18784FF47A7318
:1030E000B3FBF0F30C4A1068B0FBF3F0FDF718FCEB
:1030F00068B90F2C01D901200AE0002221464FF0C7
:10310000FF30FDF7CFFB054B1C60002000E00120E5
:1031100010BD00BF000000200800002004000020B7
:1031200008B50320FDF7ACFB0020FFF7D3FFFDF748
:1031300059FB002008BD0000034A1168034B1B78AF
:103140000B441360704700BF700200200000002095
:10315000014B1868704700BF7002002038B5044664
:10316000FFF7F6FF0546B4F1FF3F02D0044B1B7892
:103170001C44FFF7EDFF401BA042FAD338BD00BF4F
:103180000000002010B40F4AD2F8883043F47003D6
:10319000C2F888300C4B196841F001011960002019
:1031A00098601C68094921401960094959601968EB
:1031B00021F480211960D8604FF0006393605DF8BE
:1031C000044B704700ED00E000380240FFFFF6FEC0
:1031D0001030002410B5094C00220949204600F0A7
:1031E00021FA0849204600F041FA0749204601F03B
:1031F000A3F8204600F050FA10BD00BF7402002072
:103200000C00002060000020500000200368B3F193
:10321000A04F00D0704730B589B04FF4E853039306
:103220000223049300240594032306930A2307939F
:10323000154D03A92846FFF75BFE4FF40073039377
:103240000494059403A92846FFF752FE0F4B5A6BCE
:1032500042F080025A635A6B02F080020192019A96
:103260005A6C42F480425A645B6C03F480430293CC
:10327000029B224621464320FDF714FB4320FDF725
:1032800043FB09B030BD00BF0000024000380240DF
:1032900008B500F57071D0F8FC0300F016FA08BD0F
:1032A00008B5C1EBC10293000344D3F80822D0F85B
:1032B000FC0300F037FA08BD08B5C1EBC10293006A
:1032C00003449A6CD0F8FC0300F072FA08BD08B50C
:1032D000D0F8FC0300F011FB08BD10B50446C3682C
:1032E0004BB10121D4F8FC0300F0F5FAD4F8FC034B
:1032F00000F0C9FA10BD0021F4E7000010B5044643
:10330000D0F8FC0300F0EAFA2268D2F8003E43F05D
:103310000103C2F8003E236A23B1034A136943F054
:103320000603136110BD00BF00ED00E008B5D0F842
:10333000FC0300F0DCFA08BD08B5D0F8FC0300F08F
:10334000ECFA08BD08B5D0F8FC0300F0E4FA08BDBB
:1033500008B5D0F8FC0300F0E2FA08BD08B5D0F8D3
:10336000FC0300F0DEFA08BD03780BB100207047C3
:1033700010B503461548C0F8FC33C3F898024FF067
:10338000A0430360062343600023036143610222DC
:103390008261C361036243628362C3620363FDF7B8
:1033A000C7FD80B9094C80212046FEF74AFB402228
:1033B00000212046FEF721FB802201212046FEF756
:1033C0001CFB002010BDFDF7F7F9EBE7100500200E
:1033D00008B5D0F89802FDF72DFE18B1022803D0E9
:1033E000022008BD0020FCE70120FAE710B51C46CA
:1033F00013462246D0F89802FEF7AEF918B102281B
:1034000003D0022010BD0020FCE70120FAE708B538
:10341000D0F89802FEF7E1F918B1022803D0022093
:1034200008BD0020FCE70120FAE708B5D0F89802B3
:10343000FEF76BFA18B1022803D0022008BD002065
:10344000FCE70120FAE708B5D0F89802FEF79EFAEB
:1034500018B1022803D0022008BD0020FCE701209B
:10346000FAE7D0F8983211F0800F08D101F07F010F
:10347000C1EBC1018A00134493F8FE01704701F0CB
:103480007F01C1EBC1018A00134493F83E007047ED
:1034900008B5D0F89802FEF74BF918B1022803D00E
:1034A000022008BD0020FCE70120FAE708B5D0F8AB
:1034B0009802FEF700FA18B1022803D0022008BDD6
:1034C0000020FCE70120FAE708B5D0F89802FEF7E3
:1034D000BBF918B1022803D0022008BD0020FCE788
:1034E0000120FAE708B5D0F89802FEF7DBF908BD2D
:1034F00010B5044611B1012916D010BD036A5BB99D
:103500002268D2F8003E23F00103C2F8003ED4F84E
:10351000FC0300F0ECF9F0E7FDF7E8F80C4A13695A
:1035200023F006031361EBE70268D2F8003E43F094
:103530000103C2F8003ED0F8FC0300F0CFF9236A83
:10354000002BDAD0024A136943F006031361D4E773
:1035500000ED00E012230B80004870473800002087
:1035600004230B80004870474C0000200C230B8084
:10357000004870472C00002008B50A4628B10549CC
:10358000054800F006FD034808BD0249024800F066
:1035900000FDF8E7100900209853000810B5044C0E
:1035A0000A462146034800F0F4FC204610BD00BF47
:1035B000100900208453000808B50A4628B10549BF
:1035C000054800F0E6FC034808BD0249024800F047
:1035D000E0FCF8E710090020B053000808B50A46DF
:1035E00028B10549054800F0D4FC034808BD02494C
:1035F000024800F0CEFCF8E71009002068530008EC
:1036000008B50A4628B10549054800F0C2FC034840
:1036100008BD0249024800F0BCFCF8E71009002090
:103620007453000808B590B10346D0F88C0210B16D
:103630000020C3F88C0209B1C3F88812012183F875
:1036400074121A701846FFF78FFE002008BD054857
:1036500000F0AEFF044800F0ABFF0A2000F0C0FF0E
:103660000220F3E7C0530008C853000808B519B199
:10367000C0F88C12002008BD054800F099FF0548ED
:1036800000F096FF0A2000F0ABFF0220F3E700BF36
:10369000C0530008E053000808B5FFF799FE00206A
:1036A00008BD08B5D0F88C3233B11B68984708B90B
:1036B000002008BD0220FCE70220FAE708B5D0F898
:1036C0008C325B689847002008BD38B5044600F589
:1036D0002075284600F044F90123C4F86C32B4F890
:1036E0008632C4F8703294F8801201F01F03012B67
:1036F0000ED03BB1022B10D001F080012046FFF725
:1037000094FE03E02946204600F0C1FA002038BDAF
:103710002946204600F0EFFAF8E72946204600F057
:103720001AFBF3E710B5044689BB1046D4F86C3297
:10373000032B03D0052B24D0002034E0D4F84C31E7
:10374000D4F8502193420DD99B1AC4F84C319A42B7
:1037500006D99AB20146204600F05BFC002022E028
:1037600092B2F7E7D4F88C321B692BB194F874222B
:10377000032A01D120469847204600F052FC002041
:1037800011E000212046FFF750FE00200BE00A4622
:10379000D0F88C329B693BB190F87412032905D1A3
:1037A00011469847002010BD0220FCE70220FAE7EE
:1037B00010B50446002955D11046D4F86C32022BBE
:1037C00009D0002B18BF042B43D094F87832012B7A
:1037D00044D0002052E0236A626A93421DD8E16916
:1037E000B1FBF2F302FB13132BB98A4203D8D4F8CE
:1037F000703299421FD3D4F88C32DB682BB194F825
:103800007422032A01D12046984780212046FFF7E1
:103810000CFE204600F010FCD7E79A1A226292B202
:103820000146204600F0DEFB00231A4619462046DA
:10383000FFF74AFEC9E700221146204600F0D2FBFE
:103840000021C4F870120B460A462046FFF73CFEE2
:10385000BBE780212046FFF7E8FDB6E7002084F8AB
:1038600078020BE00A46D0F88C325B693BB190F8E5
:103870007412032905D111469847002010BD02207B
:10388000FCE70220FAE770B5044640230022114607
:10389000FFF7ACFD0125C4F844514026C4F850613F
:1038A0003346002280212046FFF7A0FDA561666215
:1038B00084F874520023C4F86C326360C4F87C321C
:1038C000D4F890322BB1D4F88C325B6800212046BA
:1038D0009847002070BD01740020704790F8743242
:1038E00080F87532042380F874320020704790F815
:1038F000753280F874320020704708B590F8743241
:10390000032B01D0002008BDD0F88C32DB69002BDE
:10391000F8D09847F6E70020704700207047002055
:10392000704708B5012280F87422D0F88C225268C2
:1039300001799047002008BD002302E00133DBB28B
:1039400001300278002AF9D11846704708B54B8833
:10395000012B00D008BDC0F87C3200F062FBF9E713
:103960000B7803704B7843708B78CA7803EB022393
:1039700043800B794A7903EB022383808B79CA79E0
:1039800003EB0223C380704710B504468021FFF784
:103990004CFD00212046FFF748FD10BD30B583B037
:1039A00005460C464A88130A013B0E2B00F2918013
:1039B000DFE803F01B23378F8F73808F8F8F8F8FFC
:1039C0008F8F0800D0F88832DB690DF10601007C8A
:1039D0009847BDF8062012B1E388002B7DD1E3881B
:1039E000002B00F0848003B030BDD0F888321B6813
:1039F0000DF10601007C9847EBE7037C43B9D0F852
:103A00008C329B6A0DF10600984702234370E0E771
:103A1000D0F88C32DB6A0DF1060098470223437020
:103A2000D7E7D2B2052A34D8DFE802F0030B131B24
:103A3000232BD0F888325B680DF10601007C984793
:103A4000C7E7D0F888329B680DF10601007C9847E3
:103A5000BFE7D0F88832DB680DF10601007C98479B
:103A6000B7E7D0F888321B690DF10601007C984752
:103A7000AFE7D0F888325B690DF10601007C98470A
:103A8000A7E7D0F888329B690DF10601007C9847C2
:103A90009FE72146FFF778FFA5E7037C33B9D0F80D
:103AA0008C325B6B0DF10600984792E72146FFF7D9
:103AB0006BFF98E7037C43B9D0F88C321B6B0DF198
:103AC000060098470723437083E72146FFF75CFF12
:103AD00089E72146FFF758FF85E79A4228BF1A4633
:103AE000ADF806200146284600F06FFA77E7284631
:103AF00000F097FA77E738B504468B88F3B9CB889E
:103B0000E3B94B887F2B19D803F07F0590F8743206
:103B1000032B0CD080F876522946FFF7B9FC2046DB
:103B200000F07FFA35B1022384F8743209E0FFF720
:103B30002BFF06E0012384F8743202E02046FFF7F1
:103B400023FF38BD38B504460D468978284B1970D7
:103B500001290ED890F87432022B0ED0032B21D0FD
:103B60002946FFF711FF224B19782046FFF7A6FDE3
:103B700002E02946FFF708FF38BD81B14160032309
:103B800080F87432FFF78DFD022803D0204600F044
:103B900048FAF1E729462046FFF7F6FEECE700F089
:103BA00040FAE9E789B1436899421DD0D9B2FFF7DD
:103BB00085FD0F4B197861602046FFF772FD0228E2
:103BC0000DD0204600F02DFAD6E7022380F874329B
:103BD0004160FFF773FD204600F023FACCE7294649
:103BE0002046FFF7D1FEC7E700F01BFAC4E700BF8D
:103BF000F001002008B5CB88012B0BD190F874326E
:103C00009BB1022B09D9032B0FD10122011D00F01A
:103C1000DCF901E0FFF7B8FE08BD0146002341F8DA
:103C2000083F012200F0D1F9F6E7FFF7ADFEF3E718
:103C300008B590F87432013B022B12D8CB88022BC6
:103C40000CD10123C360D0F87C320BB10323C360D5
:103C5000022200F10C0100F0B8F908BDFFF794FE54
:103C6000FBE7FFF791FEF8E708B590F87432013BE7
:103C7000022B09D84B88012B00D008BD0023C0F8C7
:103C80007C3200F0CEF9F8E7FFF77EFEF5E708B5E5
:103C90000B7803F06003202B05D0402B03D043B1F9
:103CA000FFF772FE03E0D0F88C329B689847002043
:103CB00008BD4B78092B1BD8DFE803F011171A1445
:103CC0001A08051A0E0BFFF769FEF0E7FFF713FF5E
:103CD000EDE7FFF737FFEAE7FFF78CFFE7E7FFF7CE
:103CE000A7FFE4E7FFF732FEE1E7FFF7BDFFDEE7FE
:103CF000FFF74AFEDBE738B505460C460B7803F0C4
:103D00006003202B06D0402B04D01BB1FFF73CFEF4
:103D1000002038BD95F87432013B022B16D8237968
:103D2000012B0ED8D5F88C329B682146284698473F
:103D3000E388002BECD10028EAD1284600F071F985
:103D4000E6E721462846FFF71FFEE1E72146284621
:103D5000FFF71AFEDCE738B504468A880B7803F0D3
:103D60006003202B08D0D0B2402B05D05BB1204699
:103D7000FFF70AFE002005E0D4F88C329B6820464D
:103D80009847002038BD202B05D1D4F88C329B6891
:103D900020469847F6E74B78012B3CD0002B6DD09E
:103DA000032B40F0EF8094F87432022B06D0032BE3
:103DB0001BD02046FFF7E8FD0020E3E7B0F18003C9
:103DC00018BF0123002808BF00234BB1014620463D
:103DD000FFF72BFB80212046FFF727FB0020D1E7D0
:103DE0002046FFF7D1FD0020CCE74B884BB9B0F15E
:103DF000800318BF0123002808BF00230BB1CB8824
:103E000023B1204600F00DF90020BBE70146204613
:103E1000FFF70BFBF5E794F87432022B06D0032B67
:103E20001BD02046FFF7B0FD0020ABE7B0F18003C8
:103E300018BF0123002808BF00234BB101462046CC
:103E4000FFF7F3FA80212046FFF7EFFA002099E709
:103E50002046FFF799FD002094E74B88002B40F0A7
:103E6000968010F07F0F04D1204600F0DAF8002091
:103E700088E701462046FFF7E6FAF5E794F8743242
:103E8000022B06D0032B2ED02046FFF77DFD00200D
:103E900078E7B0F1800318BF0123002808BF002392
:103EA00093B912F0800F14D100F07F0000EB800076
:103EB000830003F5A073E11800250D60022220465F
:103EC00000F083F828465DE72046FFF75DFD0020FF
:103ED00058E700F07F0000EB8000830003F1100141
:103EE00021440431E8E752B2002A23DB00F00F033B
:103EF00003EB83039D002544D5F8443143B3002AE6
:103F00002BDB00F07F0202EB8202930003F5A0732B
:103F1000E518802814BF00230123002808BF0123CF
:103F20002BB300232B6002222946204600F04DF8D7
:103F3000002027E700F00F0303EB83039D002544D7
:103F4000AB69002BDBD12046FFF71EFD002019E7EF
:103F50002046FFF719FD002014E700F07F0202EB76
:103F60008202930003F1100525440435D1E7014690
:103F70002046FFF776FA10B101232B60D3E7002328
:103F80002B60D0E72046FFF7FFFC0020FAE6002078
:103F9000F8E6C8B170B50D4616460446FFF7CCFCEE
:103FA000013040003080287003236B70022307E04B
:103FB00001345A1CD2B2E9540233DBB20021A954B5
:103FC00021780029F4D170BD704710B51346022244
:103FD000C0F86C22C36103620A460021FFF766FA4B
:103FE000002010BD08B513460A460021FFF75EFA0F
:103FF000002008BD10B513460322C0F86C22C0F89B
:104000004831C0F84C310A460021FFF75DFA002024
:1040100010BD08B513460A460021FFF755FA0020E7
:1040200008BD08B50423C0F86C3200231A461946AF
:10403000FFF73CFA002008BD08B50523C0F86C3234
:1040400000231A461946FFF73FFA002008BD00205A
:10405000704700207047000010B5054C014620460F
:1040600000F079F9204600F07CF9002010BD00BF77
:104070007402002010B5064C00220649204600F0CC
:1040800062F90549204600F066F9002010BD00BF26
:104090007402002010130020100B002010B5D0F87F
:1040A0009042D0F894325BB194F80002FF2807D018
:1040B0009B6894F8012221469847FF2384F8003238
:1040C000002010BD43230380004870479800002063
:1040D0004323038000487047DC0000204323038013
:1040E000004870472C0100200A23038000487047D5
:1040F0002001002038B50446D0F89052FFF7F2F9BD
:10410000C5F80C02D4F890324BB1D4F89432DB6885
:1041100005F50371D5F804029847002038BD022048
:10412000FCE770B5D0F89022D0F89852FAB101EBC4
:104130008104A3000344DB694BB1C1EBC106B400A9
:1041400025446D6CB3FBF5F405FB14331BB1002063
:10415000C2F8140270BD01EB8102930003440024F5
:10416000DC6123462246FFF7A1F92046F2E7022050
:10417000F0E770B582B005460C46D0F89062002397
:104180008DF80730ADF804300B7813F0600227D0BB
:10419000202A56D1CA883AB9D0F894329B680022B6
:1041A0004878984700204FE013F0800F0CD0D0F8EB
:1041B00094329B68314660789847E28831462846B9
:1041C000FFF703FF00203FE04B7886F800328B7941
:1041D00086F80132CA883146FFF70CFF002033E031
:1041E0004B780A2B14D00B2B21D01BB1FFF7CCFB43
:1041F000022029E090F87432032B05D1022201A994
:10420000FFF7E3FE00201FE0FFF7BEFB02201BE0EC
:1042100090F87432032B06D101220DF10701FFF74C
:10422000D4FE002010E0FFF7AFFB02200CE090F876
:104230007432032B01D1002006E0FFF7A5FB02201A
:1042400002E0FFF7A1FB022002B070BD38B50446C2
:104250008121FFF7DCF80025E56201212046FFF708
:10426000D6F8C4F8585182212046FFF7D0F82564CB
:10427000D4F890324BB1D4F894325B689847D4F8B4
:10428000900200F0DDF8C4F89052002038BD38B537
:104290000446037CA3BB4FF4007302228121FFF785
:1042A000A5F80125E5624FF4007302222946204655
:1042B000FFF79CF8C4F858510823032282212046B6
:1042C000FFF794F8012323644FF4077000F0B0F86F
:1042D0000546C4F8900268B3D4F894321B68984736
:1042E0000023C5F81432C5F81832237CC3B140232B
:1042F000D5F8042201212046FFF7E6F8002038BD5A
:10430000402302228121FFF771F80125E562402355
:10431000022229462046FFF769F8C4F85851CBE736
:104320004FF40073D5F8042201212046FFF7CCF8A2
:104330000020E4E70120E2E719B1C0F89412002060
:10434000704702207047D0F89032C3F80812C3F8C3
:10435000102200207047D0F89032C3F804120020D9
:104360007047D0F890229AB108B5037C3BB1402346
:10437000D2F804220121FFF7A7F8002008BD4FF46E
:104380000073D2F804220121FFF79EF80020F5E720
:1043900002207047DFF834D0002103E00C4B5B585B
:1043A000435004310B480C4B42189A42F6D30B4A47
:1043B00002E0002342F8043B094B9A42F9D3FEF78E
:1043C000E1FE00F011F8FCF7EBF970470000042063
:1043D000A054000800000020D4010020D4010020D7
:1043E000141B0020FEE7000070B50D4E0D4CA41B01
:1043F000A4100025A54209D10B4E0C4C00F09CFFE7
:10440000A41BA4100025A54205D170BD56F8253087
:1044100098470135EEE756F8253098470135F2E721
:104420009854000898540008985400089C540008B8
:10443000024B0146186800F061B800BF700100200F
:10444000024B0146186800F00BB800BF7001002055
:1044500002440346934200D1704703F8011BF9E779
:1044600038B50546002945D051F8043C0C1F002BF7
:10447000B8BFE41800F0A2F91F4A1368104633B918
:10448000636014602846BDE8384000F098B9A34244
:104490000CD921686218934204BF1A685B68636094
:1044A00004BF521822600460ECE713465A680AB150
:1044B000A242FAD919685818A0420BD120680144C9
:1044C000581882421960DDD1106852685A60014460
:1044D0001960D7E702D90C232B60D3E72068211895
:1044E0008A4204BF11685268626004BF09182160E3
:1044F0005C60C7E738BD00BFF401002070B5CD1C7B
:1045000025F0030508350C2D38BF0C25002D064677
:1045100001DBA94203D90C233360002070BD00F0F9
:104520004DF9214A1468214691B9204C23681BB9E2
:10453000304600F069F820602946304600F064F803
:10454000431C24D10C233360304600F038F9E4E7F3
:104550000B685B1B18D40B2B0FD90B60CD50CC18FC
:10456000304600F02CF904F10B00231D20F0070069
:10457000C31AD3D05A42E250D0E78C424B6816BFE0
:10458000636013600C46EBE70C464968CCE7C41C3B
:1045900024F00304A04205D0211A304600F034F87C
:1045A0000130CFD02560DBE7F4010020F8010020C6
:1045B0000FB40A4B13B51C6824B1A36913B9204684
:1045C00000F072F805AB049AA1680193204600F050
:1045D00021F902B0BDE8104004B07047700100201E
:1045E00038B5084B1C68054624B1A36913B92046A9
:1045F00000F05AF8A26829462046BDE8384000F08D
:10460000A7BB00BF7001002038B5064C002305464B
:104610000846236000F07AFE431C02D1236803B1F0
:104620002B6038BD101B0020002310B50446C0E9E4
:104630000033836081814366C281C0E904338361B2
:10464000194608225C30FFF703FF054B6362054BF8
:10465000A362054BE362054B2462236310BD00BFD8
:10466000BD4D0008DF4D0008174E00083B4E000806
:10467000014900F085B800BF1551000870B54A1E09
:10468000682555430E4605F17401FFF737FF0446D0
:1046900040B10021C0E900160C30A06005F16802AD
:1046A000FFF7D6FE204670BD836910B5044633BBC4
:1046B000C0E912330365124B124A1B6882629842AA
:1046C00004BF0123836100F01FF86060204600F002
:1046D0001BF8A060204600F017F80022E0600421DB
:1046E0006068FFF7A1FF01220921A068FFF79CFF86
:1046F00002221221E068FFF797FF0123A36110BD9A
:10470000F853000871460008F8B51B4B1E68B369E2
:10471000074613B93046FFF7C7FF4836D6E90134DC
:10472000013B03D5336833B13668F7E7B4F90C5071
:104730006DB16834F4E704213846FFF79FFF30601D
:104740000028F1D10C233B6004462046F8BD0B4BFA
:104750006566C4E90055A560C4E90335C4E905559B
:104760000822294604F15C00FFF772FEC4E90D55EA
:10477000C4E91255E9E700BFF85300080100FFFF44
:104780002DE9F8438046894600F14804002614B913
:104790003046BDE8F883D4E90175013F01D52468AE
:1047A000F5E7AB89012B07D9B5F90E30013303D0FA
:1047B00029464046C84706436835EEE770477047CC
:1047C0009368013B002B10B4936008DA9469A3420C
:1047D00001DB0A2903D15DF8044B00F033BB1368F9
:1047E000581C1060197008465DF8044B7047F8B506
:1047F00006460F461446D518AC4201D1002007E00A
:104800003A4614F8011B3046FFF7DAFF431CF3D198
:10481000F8BD00002DE9F04F0C469DB017461D462F
:10482000064618B183690BB9FFF73EFF7C4B9C42EB
:1048300058D17468A38918075ED52369002B5BD013
:104840000023099320238DF8293030238DF82A3056
:1048500003954FF0010BB846454615F8013B0BB1E7
:10486000252B54D1B8EB070A0BD053463A462146C4
:104870003046FFF7BCFF013000F0C280099B534473
:10488000099398F80030002B00F0BA8000234FF015
:10489000FF32CDE90523049307938DF853301A9323
:1048A000A846052218F8011B5E48FBF7B9FC049BDB
:1048B00078BBD90644BF20228DF853201A0744BF85
:1048C0002B228DF853202A782A2A2AD0079AA84624
:1048D00000200A25414611F8013B303B092B69D9DC
:1048E00060B324E0504B9C4201D1B468A2E74F4B27
:1048F0009C4208BFF4689DE72146304600F006FB65
:1049000000289DD04FF0FF301DB0BDE8F08FA846C5
:10491000A2E7444A801A0BFA00F018430490454677
:10492000BEE7039A111D12680391002A01DB07926A
:1049300004E0524243F002030792049398F80030D7
:104940002E2B0ED198F801302A2B38D1039B1A1D3B
:104950001B680392002BB8BF4FF0FF3308F1020829
:104960000593334D98F8001003222846FBF758FCB6
:1049700040B14023401B03FA00F0049B034308F1BD
:104980000108049398F800102A488DF82810062290
:1049900008F10107FBF744FC002837D0264B1BBB6E
:1049A000039B073323F0070308330393099B4B440E
:1049B000099350E705FB0232012088468AE700236D
:1049C00008F10108059319460A25404610F8012B05
:1049D000303A092A03D9002BC3D00591C1E705FB62
:1049E000012101238046F0E703AB00932246134BDD
:1049F00004A93046AFF30080B0F1FF3F8146D5D126
:104A0000A3895B063FF57EAF09987DE703AB009372
:104A100022460A4B04A9304600F088F8ECE700BFB4
:104A20001C5400085C5400083C540008FC53000867
:104A3000625400086654000800000000EF470008B8
:104A40002DE9F04791461F468A680B69DDF8208002
:104A50009342B8BF1346C9F8003091F84320064688
:104A60000C4612B10133C9F800302368990642BFE1
:104A7000D9F800300233C9F80030256815F0060572
:104A800007D104F1190AE368D9F800209B1AAB4258
:104A900028DC94F843302268003318BF01239206C3
:104AA0002DD404F1430239463046C047013020D0AE
:104AB0002368E568D9F8002003F00603042B08BF3B
:104AC000AD1AA36822690CBF25EAE575002593425B
:104AD000C4BF9B1AED184FF000091A344D451AD186
:104AE000002008E00123524639463046C0470130D5
:104AF00003D14FF0FF30BDE8F0870135C3E7E1187F
:104B00005A1C302081F84300224494F8451082F862
:104B100043100233C5E70123224639463046C047D9
:104B20000130E6D009F10109D8E700002DE9F04392
:104B300001F1430C0C46097E85B06E2917460646E6
:104B400098460C9A00F0B38022D8632936D00AD850
:104B5000002900F0B980582900F0838004F1420553
:104B600084F8421032E0642901D06929F6D1206826
:104B70001368050603F104012AD51B681160002B98
:104B800003DA2D225B4284F843206F480A2239E081
:104B9000732900F09D8008D86F2920D07029DDD1BD
:104BA000236843F02003236003E0752917D0782998
:104BB000D4D1782384F84530644855E01368191D32
:104BC0001B68116004F1420584F8423001238CE037
:104BD0001B68116010F0400F18BF1BB2CFE71368BD
:104BE0002568181D1060280601D51B6802E06806BC
:104BF000FBD51B8854486F2914BF0A2208220021C4
:104C000084F843106568A560002DC0F29580216886
:104C100021F004012160002B3DD1002D40F08E8059
:104C20006546082A0BD12368DB0708D5236962682B
:104C30009A42DEBF302305F8013C05F1FF35ACEBAD
:104C400005032361CDF800803B4603AA2146304688
:104C5000FFF7F6FE01304DD14FF0FF3005B0BDE853
:104C6000F083394884F84510136821681D1D1B68BE
:104C700015600A060BD5CA0744BF41F02001216028
:104C80001BB9226822F0200222601022B7E74D06ED
:104C900048BF9BB2EFE76546B3FBF2F102FB11336D
:104CA000C35C05F8013D0B460029F5D1B9E713684F
:104CB00025686169181D106028061B6801D51960F8
:104CC00002E06A06FBD51980002323616546B9E737
:104CD0001368191D11601D68626800212846FBF7E2
:104CE0009FFA08B1401B606063682361002384F869
:104CF0004330A7E723692A4639463046C04701308A
:104D0000AAD023689B0713D4E068039B9842B8BFDE
:104D10001846A3E701234A4639463046C0470130CA
:104D20009AD00135E368039A9B1AAB42F2DCEBE7B9
:104D3000002504F11909F5E7002BACD1037884F8BC
:104D4000423004F142056CE76D5400087E540008BF
:104D500070B50D461446064618B183690BB9FFF7C6
:104D6000A3FC134B9C4212D17468A368013B002B37
:104D7000A36016DAA269934202DBEBB20A2B10D1D0
:104D8000224629463046BDE8704000F05BB8094B2A
:104D90009C4201D1B468E8E7074B9C4208BFF46825
:104DA000E3E723685A1C22601D70E8B270BD00BFA3
:104DB0001C5400083C540008FC53000810B50C4675
:104DC000B1F90E1000F046FA0028ABBF636DA3895D
:104DD0001B1823F48053ACBF6365A38110BD2DE97C
:104DE000F0411F468B89DB0505460C46164605D566
:104DF00002230022B1F90E1000F0B6F9A389B4F92C
:104E00000E1023F48053A38132463B462846BDE86A
:104E1000F04100F069B810B50C46B1F90E1000F081
:104E2000A3F9431CA38915BF606523F4805343F4A1
:104E30008053A38118BFA38110BDB1F90E1000F0FB
:104E4000D3B80000F8B50E461446054618B183697C
:104E50000BB9FFF729FC214B9C422AD16C68A3694E
:104E6000A360A3891A072ED5236963B32369206839
:104E7000C01A6369F6B28342374604DC21462846ED
:104E800000F048F928BBA368013BA36023685A1CC3
:104E900022601E7063690130834204D0A389DB075E
:104EA00019D50A2E17D12146284600F033F990B1C2
:104EB0000FE00B4B9C4201D1AC68D0E7094B9C4200
:104EC00008BFEC68CBE72146284600F01FF8002811
:104ED000CCD04FF0FF373846F8BD00BF1C54000857
:104EE0003C540008FC53000838B5074C05460846FA
:104EF0001146002222601A4600F016FA431C02D125
:104F0000236803B12B6038BD101B0020324B70B5F5
:104F10001D6806460C4625B1AB6913B92846FFF754
:104F2000C3FB2E4B9C420FD16C68B4F90C309AB283
:104F300015072CD4D00611D40922326043F0400367
:104F4000A3814FF0FF303EE0254B9C4201D1AC687D
:104F5000EBE7244B9C4208BFEC68E6E7510712D50B
:104F6000616B41B104F14403994202D03046FFF72E
:104F700077FA00236363A38923F02403A38100232A
:104F8000636023692360A38943F00803A381236935
:104F90004BB9A38903F42073B3F5007F03D02146F6
:104FA000304600F017F9A28912F001030CD000235B
:104FB000A36063695B42A361236953B9B4F90C3000
:104FC00013F08000BAD170BD920758BF6369A36027
:104FD000F2E70020F7E700BF700100201C54000832
:104FE0003C540008FC53000838B5064C0023054625
:104FF0000846236000F062F9431C02D1236803B124
:105000002B6038BD101B00208A892DE9F041054630
:1050100010070C4658D44B68002B05DC0B6C002B9A
:1050200002DC0020BDE8F081E66A002EF9D0002302
:1050300012F480522F68216A2B6032D0606DA389F0
:105040005A0705D56368C01A636B0BB1236CC01A8D
:1050500000230246E66A216A2846B047431CA3891A
:1050600006D129681D2948D8294ACA40D60744D5FF
:1050700000226260D9042269226004D5421C01D159
:105080002B6803B96065616B2F600029C9D004F1FA
:105090004403994202D02846FFF7E2F900206063FA
:1050A000C0E701232846B047411CC8D12B68002B1C
:1050B000C5D01D2B01D0162B01D12F60B1E7A389DC
:1050C00043F04003A381ADE70F69002FA9D09307F8
:1050D0000E6808BF4B690F6018BF0023A6EB0708D6
:1050E0008B60B8F1000F9CDD43463A46216AA66A00
:1050F0002846B047002806DCA38943F04003A3817B
:105100004FF0FF308EE70744A8EB0008E9E700BF47
:105110000100402038B50B6905460C46DBB118B1DB
:1051200083690BB9FFF7C0FA0C4B9C4209D16C683C
:10513000B4F90C307BB121462846BDE83840FFF772
:1051400063BF074B9C4201D1AC68F1E7054B9C4221
:1051500008BFEC68ECE7002038BD00BF1C54000815
:105160003C540008FC53000838B5074C0546084677
:105170001146002222601A4600F0B8F8431C02D102
:10518000236803B12B6038BD101B002070B50E469C
:10519000B1F90E10002996B014461D4607DA002317
:1051A0002B60B3891A0610D44FF480630EE06A4670
:1051B00000F062F80028F2DB019A02F47042A2F5D6
:1051C00000535A425A412A60EEE7402300202360F0
:1051D00016B070BD8B8973B59D0706460C4607D582
:1051E00004F14703236023610123636102B070BDB2
:1051F00001AB6A46FFF7CAFF009905463046FFF744
:105200007DF948B9B4F90C309A05EFD423F00303C3
:1052100043F00203A381E3E70D4BB362A38920604F
:1052200043F08003A381009B6361019B20615BB11C
:10523000B4F90E10304600F031F828B1A38923F0FC
:10524000030343F00103A381A3891D43A581CDE797
:105250007146000838B5074C05460846114600223D
:1052600022601A4600F04AF8431C02D1236803B1B9
:105270002B6038BD101B002038B5074C00230546B5
:1052800008461146236000F021F8431C02D1236830
:1052900003B12B6038BD00BF101B002038B5064C91
:1052A000002305460846236000F018F8431C02D18D
:1052B000236803B12B6038BD101B0020024B58221D
:1052C0001A604FF0FF307047101B0020024B58222D
:1052D0001A604FF0FF307047101B0020024B58221D
:1052E0001A600020704700BF101B0020024B58229C
:1052F0001A604FF0FF307047101B0020024B5822FD
:105300001A604FF0FF307047101B0020044A054917
:105310001368002B08BF0B461844106018467047EE
:10532000FC010020181B0020024B58221A604FF08D
:10533000FF307047101B0020F8B500BFF8BC08BC58
:105340009E467047F8B500BFF8BC08BC9E46704743
:105350000000000000000000010203040607080925
:10536000000000000102030443444320436F6E66C3
:105370006967000043444320496E74657266616347
:105380006500000053544D6963726F656C6563740A
:10539000726F6E696373000053544D333220566947
:1053A000727475616C20436F6D506F7274000000F1
:1053B000303030303030303030303141000000009B
:1053C0004552524F523A2000496E76616C69642012
:1053D0004465766963652068616E646C65000000F1
:1053E000496E76616C696420436C617373206861F7
:1053F0006E646C6500000000740100200000000075
:10540000000000000000000000000000000000009C
:10541000000000000000000000000000000000008C
:10542000000000000000000000000000000000007C
:10543000000000000000000000000000000000006C
:10544000000000000000000000000000000000005C
:10545000000000000000000000000000232D302BA1
:105460002000686C4C006566674546470030313265
:1054700033343536373839414243444546003031BC
:10548000323334353637383961626364656600001B
:0854900060AEFF7F0100000087
:045498000502000801
:04549C00E101000822
:1054A00001000000100000000024F4005535000841
:1054B000613500089D35000879350008B9350008C8
:1054C000DD350008013600086D350008050F0C00B9
:1054D0000107100202000000120101020202004056
:1054E0008304405700020102030100000403090481
:1054F000754000084F40000853400008594000081C
:105500008F4200084D42000873410008000000006F
:105510009D40000823410008F540000800000000FD
:105520000000000000000000D1400008C540000855
:10553000DD400008E940000809024300020100C004
:1055400032090400000102020100052400100105D7
:10555000240100010424020205240600010705823B
:105560000308001009040100020A000000070501F9
:1055700002400000070581024000000009024300CC
:10558000020100C0320904000001020201000524EA
:105590000010010524010001042402020524060074
:1055A000010705820308001009040100020A000037
:1055B0000007050102000200070581020002000049
:1055C0000A06000200000040010000000907430035
:1055D000020104C032090400000102020100052496
:1055E0000010010524010001042402020524060024
:1055F000010705820308001009040100020A0000E7
:10560000000705010240000007058102400000007C
:1056100074010020000000001C5400083C540008E5
:10562000FC53000800000000000000000000000023
:10563000000000000000000000000000000000006A
:10564000000000000000000000000000000000005A
:10565000000000000000000000000000000000004A
:10566000000000000000000000000000000000003A
:045670000000000036
:040000050800439517
:00000001FF
